{
  "_format": "hh-sol-artifact-1",
  "contractName": "MultisigWallet",
  "sourceName": "contracts/MultisigWallet.sol",
  "abi": [
    {
      "inputs": [
        {
          "internalType": "address",
          "name": "owner",
          "type": "address"
        }
      ],
      "stateMutability": "nonpayable",
      "type": "constructor"
    },
    {
      "anonymous": false,
      "inputs": [
        {
          "indexed": true,
          "internalType": "address",
          "name": "from",
          "type": "address"
        },
        {
          "indexed": true,
          "internalType": "address",
          "name": "to",
          "type": "address"
        }
      ],
      "name": "Delegate",
      "type": "event"
    },
    {
      "anonymous": false,
      "inputs": [
        {
          "indexed": false,
          "internalType": "uint256",
          "name": "txnId",
          "type": "uint256"
        },
        {
          "indexed": true,
          "internalType": "address",
          "name": "approver",
          "type": "address"
        }
      ],
      "name": "ERC1155TransactionApproved",
      "type": "event"
    },
    {
      "anonymous": false,
      "inputs": [
        {
          "indexed": false,
          "internalType": "uint256",
          "name": "txnId",
          "type": "uint256"
        }
      ],
      "name": "ERC1155TransactionCancelled",
      "type": "event"
    },
    {
      "anonymous": false,
      "inputs": [
        {
          "indexed": false,
          "internalType": "uint256",
          "name": "txnId",
          "type": "uint256"
        },
        {
          "indexed": true,
          "internalType": "address",
          "name": "to",
          "type": "address"
        },
        {
          "indexed": true,
          "internalType": "address",
          "name": "contractAddr",
          "type": "address"
        },
        {
          "indexed": false,
          "internalType": "uint256",
          "name": "amount",
          "type": "uint256"
        },
        {
          "indexed": false,
          "internalType": "uint256",
          "name": "tokenId",
          "type": "uint256"
        }
      ],
      "name": "ERC1155TransactionCreated",
      "type": "event"
    },
    {
      "anonymous": false,
      "inputs": [
        {
          "indexed": false,
          "internalType": "uint256",
          "name": "txnId",
          "type": "uint256"
        },
        {
          "indexed": true,
          "internalType": "address",
          "name": "disapprover",
          "type": "address"
        }
      ],
      "name": "ERC1155TransactionDisapproved",
      "type": "event"
    },
    {
      "anonymous": false,
      "inputs": [
        {
          "indexed": false,
          "internalType": "uint256",
          "name": "txnId",
          "type": "uint256"
        }
      ],
      "name": "ERC1155TransactionExecuted",
      "type": "event"
    },
    {
      "anonymous": false,
      "inputs": [
        {
          "indexed": false,
          "internalType": "uint256",
          "name": "txnId",
          "type": "uint256"
        },
        {
          "indexed": true,
          "internalType": "address",
          "name": "approver",
          "type": "address"
        }
      ],
      "name": "ERC20TransactionApproved",
      "type": "event"
    },
    {
      "anonymous": false,
      "inputs": [
        {
          "indexed": false,
          "internalType": "uint256",
          "name": "txnId",
          "type": "uint256"
        }
      ],
      "name": "ERC20TransactionCancelled",
      "type": "event"
    },
    {
      "anonymous": false,
      "inputs": [
        {
          "indexed": false,
          "internalType": "uint256",
          "name": "txnId",
          "type": "uint256"
        },
        {
          "indexed": true,
          "internalType": "address",
          "name": "to",
          "type": "address"
        },
        {
          "indexed": true,
          "internalType": "address",
          "name": "contractAddr",
          "type": "address"
        },
        {
          "indexed": false,
          "internalType": "uint256",
          "name": "amount",
          "type": "uint256"
        }
      ],
      "name": "ERC20TransactionCreated",
      "type": "event"
    },
    {
      "anonymous": false,
      "inputs": [
        {
          "indexed": false,
          "internalType": "uint256",
          "name": "txnId",
          "type": "uint256"
        },
        {
          "indexed": true,
          "internalType": "address",
          "name": "disapprover",
          "type": "address"
        }
      ],
      "name": "ERC20TransactionDisapproved",
      "type": "event"
    },
    {
      "anonymous": false,
      "inputs": [
        {
          "indexed": false,
          "internalType": "uint256",
          "name": "txnId",
          "type": "uint256"
        }
      ],
      "name": "ERC20TransactionExecuted",
      "type": "event"
    },
    {
      "anonymous": false,
      "inputs": [
        {
          "indexed": false,
          "internalType": "uint256",
          "name": "txnId",
          "type": "uint256"
        },
        {
          "indexed": true,
          "internalType": "address",
          "name": "approver",
          "type": "address"
        }
      ],
      "name": "ERC721TransactionApproved",
      "type": "event"
    },
    {
      "anonymous": false,
      "inputs": [
        {
          "indexed": false,
          "internalType": "uint256",
          "name": "txnId",
          "type": "uint256"
        }
      ],
      "name": "ERC721TransactionCancelled",
      "type": "event"
    },
    {
      "anonymous": false,
      "inputs": [
        {
          "indexed": false,
          "internalType": "uint256",
          "name": "txnId",
          "type": "uint256"
        },
        {
          "indexed": true,
          "internalType": "address",
          "name": "to",
          "type": "address"
        },
        {
          "indexed": true,
          "internalType": "address",
          "name": "contractAddr",
          "type": "address"
        },
        {
          "indexed": false,
          "internalType": "uint256",
          "name": "tokenId",
          "type": "uint256"
        }
      ],
      "name": "ERC721TransactionCreated",
      "type": "event"
    },
    {
      "anonymous": false,
      "inputs": [
        {
          "indexed": false,
          "internalType": "uint256",
          "name": "txnId",
          "type": "uint256"
        },
        {
          "indexed": true,
          "internalType": "address",
          "name": "disapprover",
          "type": "address"
        }
      ],
      "name": "ERC721TransactionDisapproved",
      "type": "event"
    },
    {
      "anonymous": false,
      "inputs": [
        {
          "indexed": false,
          "internalType": "uint256",
          "name": "txnId",
          "type": "uint256"
        }
      ],
      "name": "ERC721TransactionExecuted",
      "type": "event"
    },
    {
      "anonymous": false,
      "inputs": [
        {
          "indexed": true,
          "internalType": "address",
          "name": "previousOwner",
          "type": "address"
        },
        {
          "indexed": true,
          "internalType": "address",
          "name": "newOwner",
          "type": "address"
        }
      ],
      "name": "OwnershipTransferred",
      "type": "event"
    },
    {
      "anonymous": false,
      "inputs": [
        {
          "indexed": true,
          "internalType": "address",
          "name": "signer",
          "type": "address"
        }
      ],
      "name": "RevokeDelegation",
      "type": "event"
    },
    {
      "anonymous": false,
      "inputs": [
        {
          "indexed": true,
          "internalType": "address",
          "name": "signerAddress",
          "type": "address"
        },
        {
          "indexed": false,
          "internalType": "string",
          "name": "cid",
          "type": "string"
        },
        {
          "indexed": false,
          "internalType": "int256",
          "name": "txnCap",
          "type": "int256"
        }
      ],
      "name": "SignerAdded",
      "type": "event"
    },
    {
      "anonymous": false,
      "inputs": [
        {
          "indexed": true,
          "internalType": "address",
          "name": "signer",
          "type": "address"
        },
        {
          "indexed": false,
          "internalType": "int256",
          "name": "txnCap",
          "type": "int256"
        }
      ],
      "name": "SignerTxnCapUpdated",
      "type": "event"
    },
    {
      "stateMutability": "payable",
      "type": "fallback"
    },
    {
      "inputs": [],
      "name": "_signerCount",
      "outputs": [
        {
          "internalType": "uint256",
          "name": "",
          "type": "uint256"
        }
      ],
      "stateMutability": "view",
      "type": "function"
    },
    {
      "inputs": [
        {
          "internalType": "address",
          "name": "signer_",
          "type": "address"
        },
        {
          "internalType": "int256",
          "name": "txnCap_",
          "type": "int256"
        },
        {
          "internalType": "string",
          "name": "cid_",
          "type": "string"
        }
      ],
      "name": "addSigner",
      "outputs": [],
      "stateMutability": "nonpayable",
      "type": "function"
    },
    {
      "inputs": [
        {
          "internalType": "uint256",
          "name": "txnId_",
          "type": "uint256"
        }
      ],
      "name": "approveERC1155Transaction",
      "outputs": [],
      "stateMutability": "nonpayable",
      "type": "function"
    },
    {
      "inputs": [
        {
          "internalType": "uint256",
          "name": "txnId_",
          "type": "uint256"
        }
      ],
      "name": "approveERC20Transaction",
      "outputs": [],
      "stateMutability": "nonpayable",
      "type": "function"
    },
    {
      "inputs": [
        {
          "internalType": "uint256",
          "name": "txnId_",
          "type": "uint256"
        }
      ],
      "name": "approveERC721Transaction",
      "outputs": [],
      "stateMutability": "nonpayable",
      "type": "function"
    },
    {
      "inputs": [
        {
          "internalType": "address",
          "name": "to_",
          "type": "address"
        },
        {
          "internalType": "address",
          "name": "contractAddr_",
          "type": "address"
        },
        {
          "internalType": "uint256",
          "name": "tokenId_",
          "type": "uint256"
        },
        {
          "internalType": "uint256",
          "name": "amount_",
          "type": "uint256"
        }
      ],
      "name": "createERC1155Transaction",
      "outputs": [],
      "stateMutability": "nonpayable",
      "type": "function"
    },
    {
      "inputs": [
        {
          "internalType": "address",
          "name": "to_",
          "type": "address"
        },
        {
          "internalType": "address",
          "name": "contractAddr_",
          "type": "address"
        },
        {
          "internalType": "uint256",
          "name": "amount_",
          "type": "uint256"
        }
      ],
      "name": "createERC20Transaction",
      "outputs": [],
      "stateMutability": "nonpayable",
      "type": "function"
    },
    {
      "inputs": [
        {
          "internalType": "address",
          "name": "to_",
          "type": "address"
        },
        {
          "internalType": "address",
          "name": "contractAddr_",
          "type": "address"
        },
        {
          "internalType": "uint256",
          "name": "tokenId_",
          "type": "uint256"
        }
      ],
      "name": "createERC721Transaction",
      "outputs": [],
      "stateMutability": "nonpayable",
      "type": "function"
    },
    {
      "inputs": [
        {
          "internalType": "address",
          "name": "to_",
          "type": "address"
        }
      ],
      "name": "delegate",
      "outputs": [],
      "stateMutability": "nonpayable",
      "type": "function"
    },
    {
      "inputs": [
        {
          "internalType": "uint256",
          "name": "txnId_",
          "type": "uint256"
        }
      ],
      "name": "disapproveERC1155Trasaction",
      "outputs": [],
      "stateMutability": "nonpayable",
      "type": "function"
    },
    {
      "inputs": [
        {
          "internalType": "uint256",
          "name": "txnId_",
          "type": "uint256"
        }
      ],
      "name": "disapproveERC20Trasaction",
      "outputs": [],
      "stateMutability": "nonpayable",
      "type": "function"
    },
    {
      "inputs": [
        {
          "internalType": "uint256",
          "name": "txnId_",
          "type": "uint256"
        }
      ],
      "name": "disapproveERC721Trasaction",
      "outputs": [],
      "stateMutability": "nonpayable",
      "type": "function"
    },
    {
      "inputs": [
        {
          "internalType": "address",
          "name": "",
          "type": "address"
        },
        {
          "internalType": "uint256",
          "name": "",
          "type": "uint256"
        }
      ],
      "name": "erc1155LockedBalance",
      "outputs": [
        {
          "internalType": "uint256",
          "name": "",
          "type": "uint256"
        }
      ],
      "stateMutability": "view",
      "type": "function"
    },
    {
      "inputs": [
        {
          "internalType": "uint256",
          "name": "",
          "type": "uint256"
        }
      ],
      "name": "erc1155Transactions",
      "outputs": [
        {
          "internalType": "enum MultisigWallet.TxnStatus",
          "name": "status",
          "type": "uint8"
        },
        {
          "internalType": "address",
          "name": "to",
          "type": "address"
        },
        {
          "internalType": "address",
          "name": "contractAddr",
          "type": "address"
        },
        {
          "internalType": "uint256",
          "name": "tokenId",
          "type": "uint256"
        },
        {
          "internalType": "uint256",
          "name": "amount",
          "type": "uint256"
        },
        {
          "internalType": "uint256",
          "name": "approval",
          "type": "uint256"
        },
        {
          "internalType": "uint256",
          "name": "disapproval",
          "type": "uint256"
        }
      ],
      "stateMutability": "view",
      "type": "function"
    },
    {
      "inputs": [
        {
          "internalType": "address",
          "name": "",
          "type": "address"
        }
      ],
      "name": "erc20LockedBalance",
      "outputs": [
        {
          "internalType": "uint256",
          "name": "",
          "type": "uint256"
        }
      ],
      "stateMutability": "view",
      "type": "function"
    },
    {
      "inputs": [
        {
          "internalType": "uint256",
          "name": "",
          "type": "uint256"
        }
      ],
      "name": "erc20Transactions",
      "outputs": [
        {
          "internalType": "enum MultisigWallet.TxnStatus",
          "name": "status",
          "type": "uint8"
        },
        {
          "internalType": "address",
          "name": "to",
          "type": "address"
        },
        {
          "internalType": "address",
          "name": "contractAddr",
          "type": "address"
        },
        {
          "internalType": "uint256",
          "name": "amount",
          "type": "uint256"
        },
        {
          "internalType": "uint256",
          "name": "approval",
          "type": "uint256"
        },
        {
          "internalType": "uint256",
          "name": "disapproval",
          "type": "uint256"
        }
      ],
      "stateMutability": "view",
      "type": "function"
    },
    {
      "inputs": [
        {
          "internalType": "address",
          "name": "",
          "type": "address"
        },
        {
          "internalType": "uint256",
          "name": "",
          "type": "uint256"
        }
      ],
      "name": "erc721LockedBalance",
      "outputs": [
        {
          "internalType": "bool",
          "name": "",
          "type": "bool"
        }
      ],
      "stateMutability": "view",
      "type": "function"
    },
    {
      "inputs": [
        {
          "internalType": "uint256",
          "name": "",
          "type": "uint256"
        }
      ],
      "name": "erc721Transactions",
      "outputs": [
        {
          "internalType": "enum MultisigWallet.TxnStatus",
          "name": "status",
          "type": "uint8"
        },
        {
          "internalType": "address",
          "name": "to",
          "type": "address"
        },
        {
          "internalType": "address",
          "name": "contractAddr",
          "type": "address"
        },
        {
          "internalType": "uint256",
          "name": "tokenId",
          "type": "uint256"
        },
        {
          "internalType": "uint256",
          "name": "approval",
          "type": "uint256"
        },
        {
          "internalType": "uint256",
          "name": "disapproval",
          "type": "uint256"
        }
      ],
      "stateMutability": "view",
      "type": "function"
    },
    {
      "inputs": [
        {
          "internalType": "address",
          "name": "",
          "type": "address"
        },
        {
          "internalType": "address",
          "name": "",
          "type": "address"
        },
        {
          "internalType": "uint256[]",
          "name": "",
          "type": "uint256[]"
        },
        {
          "internalType": "uint256[]",
          "name": "",
          "type": "uint256[]"
        },
        {
          "internalType": "bytes",
          "name": "",
          "type": "bytes"
        }
      ],
      "name": "onERC1155BatchReceived",
      "outputs": [
        {
          "internalType": "bytes4",
          "name": "",
          "type": "bytes4"
        }
      ],
      "stateMutability": "nonpayable",
      "type": "function"
    },
    {
      "inputs": [
        {
          "internalType": "address",
          "name": "",
          "type": "address"
        },
        {
          "internalType": "address",
          "name": "",
          "type": "address"
        },
        {
          "internalType": "uint256",
          "name": "",
          "type": "uint256"
        },
        {
          "internalType": "uint256",
          "name": "",
          "type": "uint256"
        },
        {
          "internalType": "bytes",
          "name": "",
          "type": "bytes"
        }
      ],
      "name": "onERC1155Received",
      "outputs": [
        {
          "internalType": "bytes4",
          "name": "",
          "type": "bytes4"
        }
      ],
      "stateMutability": "nonpayable",
      "type": "function"
    },
    {
      "inputs": [
        {
          "internalType": "address",
          "name": "",
          "type": "address"
        },
        {
          "internalType": "address",
          "name": "",
          "type": "address"
        },
        {
          "internalType": "uint256",
          "name": "",
          "type": "uint256"
        },
        {
          "internalType": "bytes",
          "name": "",
          "type": "bytes"
        }
      ],
      "name": "onERC721Received",
      "outputs": [
        {
          "internalType": "bytes4",
          "name": "",
          "type": "bytes4"
        }
      ],
      "stateMutability": "nonpayable",
      "type": "function"
    },
    {
      "inputs": [],
      "name": "owner",
      "outputs": [
        {
          "internalType": "address",
          "name": "",
          "type": "address"
        }
      ],
      "stateMutability": "view",
      "type": "function"
    },
    {
      "inputs": [],
      "name": "renounceOwnership",
      "outputs": [],
      "stateMutability": "nonpayable",
      "type": "function"
    },
    {
      "inputs": [],
      "name": "revokeDelegation",
      "outputs": [],
      "stateMutability": "nonpayable",
      "type": "function"
    },
    {
      "inputs": [
        {
          "internalType": "address",
          "name": "",
          "type": "address"
        }
      ],
      "name": "signers",
      "outputs": [
        {
          "internalType": "address",
          "name": "delegateTo",
          "type": "address"
        },
        {
          "internalType": "uint256",
          "name": "weight",
          "type": "uint256"
        },
        {
          "internalType": "int256",
          "name": "txnCap",
          "type": "int256"
        }
      ],
      "stateMutability": "view",
      "type": "function"
    },
    {
      "inputs": [
        {
          "internalType": "bytes4",
          "name": "interfaceId",
          "type": "bytes4"
        }
      ],
      "name": "supportsInterface",
      "outputs": [
        {
          "internalType": "bool",
          "name": "",
          "type": "bool"
        }
      ],
      "stateMutability": "view",
      "type": "function"
    },
    {
      "inputs": [
        {
          "internalType": "address",
          "name": "newOwner",
          "type": "address"
        }
      ],
      "name": "transferOwnership",
      "outputs": [],
      "stateMutability": "nonpayable",
      "type": "function"
    },
    {
      "inputs": [
        {
          "internalType": "address",
          "name": "signer_",
          "type": "address"
        },
        {
          "internalType": "int256",
          "name": "txnCap_",
          "type": "int256"
        }
      ],
      "name": "updateTxnCap",
      "outputs": [],
      "stateMutability": "nonpayable",
      "type": "function"
    },
    {
      "stateMutability": "payable",
      "type": "receive"
    }
  ],
  "bytecode": "0x60806040523480156200001157600080fd5b50604051620059103803806200591083398181016040528101906200003791906200024a565b620000576200004b6200011460201b60201c565b6200011c60201b60201c565b6001600260008373ffffffffffffffffffffffffffffffffffffffff1673ffffffffffffffffffffffffffffffffffffffff168152602001908152602001600020600101819055507fffffffffffffffffffffffffffffffffffffffffffffffffffffffffffffffff600260008373ffffffffffffffffffffffffffffffffffffffff1673ffffffffffffffffffffffffffffffffffffffff1681526020019081526020016000206002018190555060018081905550506200027c565b600033905090565b60008060009054906101000a900473ffffffffffffffffffffffffffffffffffffffff169050816000806101000a81548173ffffffffffffffffffffffffffffffffffffffff021916908373ffffffffffffffffffffffffffffffffffffffff1602179055508173ffffffffffffffffffffffffffffffffffffffff168173ffffffffffffffffffffffffffffffffffffffff167f8be0079c531659141344cd1fd0a4f28419497f9722a3daafe3b4186f6b6457e060405160405180910390a35050565b600080fd5b600073ffffffffffffffffffffffffffffffffffffffff82169050919050565b60006200021282620001e5565b9050919050565b620002248162000205565b81146200023057600080fd5b50565b600081519050620002448162000219565b92915050565b600060208284031215620002635762000262620001e0565b5b6000620002738482850162000233565b91505092915050565b615684806200028c6000396000f3fe6080604052600436106101bb5760003560e01c80638da5cb5b116100ec578063e4b66fb81161008a578063f23a6e6111610064578063f23a6e611461063d578063f2fde38b1461067a578063f56f0354146106a3578063fecb2d77146106e5576101c2565b8063e4b66fb8146105c2578063e96cdc69146105eb578063eb07e2f214610614576101c2565b8063c040d363116100c6578063c040d363146104f1578063c986b07614610533578063d10a90591461055c578063d2db92be14610585576101c2565b80638da5cb5b14610472578063a4d318051461049d578063bc197c81146104b4576101c2565b80635c19a95c11610159578063758509b611610133578063758509b6146103ba578063769d3379146103e35780638254b56d1461040c5780638784566a14610435576101c2565b80635c19a95c1461033b578063715018a614610364578063736c0d5b1461037b576101c2565b80632384c838116101955780632384c838146102675780634b17280e146102a4578063501322e0146102cd57806350f1dedc14610310576101c2565b806301ffc9a7146101c4578063081d686f14610201578063150b7a021461022a576101c2565b366101c257005b005b3480156101d057600080fd5b506101eb60048036038101906101e69190614304565b61070e565b6040516101f8919061434c565b60405180910390f35b34801561020d57600080fd5b506102286004803603810190610223919061439d565b610788565b005b34801561023657600080fd5b50610251600480360381019061024c919061456e565b6108b4565b60405161025e9190614600565b60405180910390f35b34801561027357600080fd5b5061028e6004803603810190610289919061461b565b6108c8565b60405161029b919061434c565b60405180910390f35b3480156102b057600080fd5b506102cb60048036038101906102c6919061465b565b6108f7565b005b3480156102d957600080fd5b506102f460048036038101906102ef919061439d565b610e1b565b6040516103079796959493929190614757565b60405180910390f35b34801561031c57600080fd5b50610325610eba565b60405161033291906147c6565b60405180910390f35b34801561034757600080fd5b50610362600480360381019061035d91906147e1565b610ec0565b005b34801561037057600080fd5b506103796113f4565b005b34801561038757600080fd5b506103a2600480360381019061039d91906147e1565b611408565b6040516103b193929190614827565b60405180910390f35b3480156103c657600080fd5b506103e160048036038101906103dc919061439d565b611452565b005b3480156103ef57600080fd5b5061040a6004803603810190610405919061439d565b61157e565b005b34801561041857600080fd5b50610433600480360381019061042e919061439d565b6116aa565b005b34801561044157600080fd5b5061045c6004803603810190610457919061461b565b6117d6565b60405161046991906147c6565b60405180910390f35b34801561047e57600080fd5b506104876117fb565b604051610494919061485e565b60405180910390f35b3480156104a957600080fd5b506104b2611824565b005b3480156104c057600080fd5b506104db60048036038101906104d69190614941565b611aff565b6040516104e89190614600565b60405180910390f35b3480156104fd57600080fd5b506105186004803603810190610513919061439d565b611b14565b60405161052a96959493929190614a10565b60405180910390f35b34801561053f57600080fd5b5061055a60048036038101906105559190614b3e565b611bad565b005b34801561056857600080fd5b50610583600480360381019061057e919061439d565b611d36565b005b34801561059157600080fd5b506105ac60048036038101906105a791906147e1565b611e62565b6040516105b991906147c6565b60405180910390f35b3480156105ce57600080fd5b506105e960048036038101906105e49190614bad565b611e7a565b005b3480156105f757600080fd5b50610612600480360381019061060d9190614c00565b6123b1565b005b34801561062057600080fd5b5061063b6004803603810190610636919061439d565b6124d7565b005b34801561064957600080fd5b50610664600480360381019061065f9190614c40565b612603565b6040516106719190614600565b60405180910390f35b34801561068657600080fd5b506106a1600480360381019061069c91906147e1565b612618565b005b3480156106af57600080fd5b506106ca60048036038101906106c5919061439d565b61269c565b6040516106dc96959493929190614a10565b60405180910390f35b3480156106f157600080fd5b5061070c60048036038101906107079190614bad565b612735565b005b60007f4e2312e0000000000000000000000000000000000000000000000000000000007bffffffffffffffffffffffffffffffffffffffffffffffffffffffff1916827bffffffffffffffffffffffffffffffffffffffffffffffffffffffff19161480610781575061078082612d93565b5b9050919050565b6000600260003373ffffffffffffffffffffffffffffffffffffffff1673ffffffffffffffffffffffffffffffffffffffff168152602001908152602001600020600101541180156108685750600073ffffffffffffffffffffffffffffffffffffffff16600260003373ffffffffffffffffffffffffffffffffffffffff1673ffffffffffffffffffffffffffffffffffffffff16815260200190815260200160002060000160009054906101000a900473ffffffffffffffffffffffffffffffffffffffff1673ffffffffffffffffffffffffffffffffffffffff16145b6108a7576040517f08c379a000000000000000000000000000000000000000000000000000000000815260040161089e90614d34565b60405180910390fd5b6108b18133612dfd565b50565b600063150b7a0260e01b9050949350505050565b60076020528160005260406000206020528060005260406000206000915091509054906101000a900460ff1681565b6000600260003373ffffffffffffffffffffffffffffffffffffffff1673ffffffffffffffffffffffffffffffffffffffff168152602001908152602001600020600101541180156109d75750600073ffffffffffffffffffffffffffffffffffffffff16600260003373ffffffffffffffffffffffffffffffffffffffff1673ffffffffffffffffffffffffffffffffffffffff16815260200190815260200160002060000160009054906101000a900473ffffffffffffffffffffffffffffffffffffffff1673ffffffffffffffffffffffffffffffffffffffff16145b610a16576040517f08c379a0000000000000000000000000000000000000000000000000000000008152600401610a0d90614d34565b60405180910390fd5b600083905060008173ffffffffffffffffffffffffffffffffffffffff1662fdd58e30866040518363ffffffff1660e01b8152600401610a57929190614d54565b60206040518083038186803b158015610a6f57600080fd5b505afa158015610a83573d6000803e3d6000fd5b505050506040513d601f19601f82011682018060405250810190610aa79190614d92565b905060008111610aec576040517f08c379a0000000000000000000000000000000000000000000000000000000008152600401610ae390614e0b565b60405180910390fd5b82600860008773ffffffffffffffffffffffffffffffffffffffff1673ffffffffffffffffffffffffffffffffffffffff16815260200190815260200160002060008681526020019081526020016000205482610b499190614e5a565b1015610b8a576040517f08c379a0000000000000000000000000000000000000000000000000000000008152600401610b8190614eda565b60405180910390fd5b60006040518060e0016040528060006003811115610bab57610baa6146c2565b5b81526020018873ffffffffffffffffffffffffffffffffffffffff1681526020018773ffffffffffffffffffffffffffffffffffffffff1681526020018681526020018581526020016000815260200160008152509050600581908060018154018082558091505060019003906000526020600020906006020160009091909190915060008201518160000160006101000a81548160ff02191690836003811115610c5957610c586146c2565b5b021790555060208201518160000160016101000a81548173ffffffffffffffffffffffffffffffffffffffff021916908373ffffffffffffffffffffffffffffffffffffffff16021790555060408201518160010160006101000a81548173ffffffffffffffffffffffffffffffffffffffff021916908373ffffffffffffffffffffffffffffffffffffffff160217905550606082015181600201556080820151816003015560a0820151816004015560c08201518160050155505083600860008873ffffffffffffffffffffffffffffffffffffffff1673ffffffffffffffffffffffffffffffffffffffff16815260200190815260200160002060008781526020019081526020016000206000828254610d769190614efa565b925050819055508573ffffffffffffffffffffffffffffffffffffffff168773ffffffffffffffffffffffffffffffffffffffff167fa4a7ca93eae51c2a89adce5fd091737205e7710325235f01e9e158555c595fa06001600580549050610dde9190614e5a565b8789604051610def93929190614f50565b60405180910390a3610e126001600380549050610e0c9190614e5a565b33612f7d565b50505050505050565b60058181548110610e2b57600080fd5b90600052602060002090600602016000915090508060000160009054906101000a900460ff16908060000160019054906101000a900473ffffffffffffffffffffffffffffffffffffffff16908060010160009054906101000a900473ffffffffffffffffffffffffffffffffffffffff16908060020154908060030154908060040154908060050154905087565b60015481565b6000600260003373ffffffffffffffffffffffffffffffffffffffff1673ffffffffffffffffffffffffffffffffffffffff16815260200190815260200160002060010154118015610fa05750600073ffffffffffffffffffffffffffffffffffffffff16600260003373ffffffffffffffffffffffffffffffffffffffff1673ffffffffffffffffffffffffffffffffffffffff16815260200190815260200160002060000160009054906101000a900473ffffffffffffffffffffffffffffffffffffffff1673ffffffffffffffffffffffffffffffffffffffff16145b610fdf576040517f08c379a0000000000000000000000000000000000000000000000000000000008152600401610fd690614d34565b60405180910390fd5b6000600260008373ffffffffffffffffffffffffffffffffffffffff1673ffffffffffffffffffffffffffffffffffffffff1681526020019081526020016000206001015411611064576040517f08c379a000000000000000000000000000000000000000000000000000000000815260040161105b90614fd3565b60405180910390fd5b3373ffffffffffffffffffffffffffffffffffffffff168173ffffffffffffffffffffffffffffffffffffffff1614156110d3576040517f08c379a00000000000000000000000000000000000000000000000000000000081526004016110ca9061503f565b60405180910390fd5b6000600260003373ffffffffffffffffffffffffffffffffffffffff1673ffffffffffffffffffffffffffffffffffffffff168152602001908152602001600020905060008290505b600073ffffffffffffffffffffffffffffffffffffffff16600260008373ffffffffffffffffffffffffffffffffffffffff1673ffffffffffffffffffffffffffffffffffffffff16815260200190815260200160002060000160009054906101000a900473ffffffffffffffffffffffffffffffffffffffff1673ffffffffffffffffffffffffffffffffffffffff161461128b57600260008273ffffffffffffffffffffffffffffffffffffffff1673ffffffffffffffffffffffffffffffffffffffff16815260200190815260200160002060000160009054906101000a900473ffffffffffffffffffffffffffffffffffffffff1690503373ffffffffffffffffffffffffffffffffffffffff168173ffffffffffffffffffffffffffffffffffffffff161415611286576040517f08c379a000000000000000000000000000000000000000000000000000000000815260040161127d906150ab565b60405180910390fd5b61111c565b8290505b600073ffffffffffffffffffffffffffffffffffffffff168173ffffffffffffffffffffffffffffffffffffffff1614611352576000600260008373ffffffffffffffffffffffffffffffffffffffff1673ffffffffffffffffffffffffffffffffffffffff1681526020019081526020016000209050826001015481600101600082825461131e9190614efa565b925050819055508060000160009054906101000a900473ffffffffffffffffffffffffffffffffffffffff1691505061128f565b828260000160006101000a81548173ffffffffffffffffffffffffffffffffffffffff021916908373ffffffffffffffffffffffffffffffffffffffff1602179055508273ffffffffffffffffffffffffffffffffffffffff163373ffffffffffffffffffffffffffffffffffffffff167fab7d75eccd27c9989942a3a6e4137e415df0ad90ec428751b16361f16fe8780f60405160405180910390a3505050565b6113fc61312a565b61140660006131a8565b565b60026020528060005260406000206000915090508060000160009054906101000a900473ffffffffffffffffffffffffffffffffffffffff16908060010154908060020154905083565b6000600260003373ffffffffffffffffffffffffffffffffffffffff1673ffffffffffffffffffffffffffffffffffffffff168152602001908152602001600020600101541180156115325750600073ffffffffffffffffffffffffffffffffffffffff16600260003373ffffffffffffffffffffffffffffffffffffffff1673ffffffffffffffffffffffffffffffffffffffff16815260200190815260200160002060000160009054906101000a900473ffffffffffffffffffffffffffffffffffffffff1673ffffffffffffffffffffffffffffffffffffffff16145b611571576040517f08c379a000000000000000000000000000000000000000000000000000000000815260040161156890614d34565b60405180910390fd5b61157b8133612f7d565b50565b6000600260003373ffffffffffffffffffffffffffffffffffffffff1673ffffffffffffffffffffffffffffffffffffffff1681526020019081526020016000206001015411801561165e5750600073ffffffffffffffffffffffffffffffffffffffff16600260003373ffffffffffffffffffffffffffffffffffffffff1673ffffffffffffffffffffffffffffffffffffffff16815260200190815260200160002060000160009054906101000a900473ffffffffffffffffffffffffffffffffffffffff1673ffffffffffffffffffffffffffffffffffffffff16145b61169d576040517f08c379a000000000000000000000000000000000000000000000000000000000815260040161169490614d34565b60405180910390fd5b6116a7813361326c565b50565b6000600260003373ffffffffffffffffffffffffffffffffffffffff1673ffffffffffffffffffffffffffffffffffffffff1681526020019081526020016000206001015411801561178a5750600073ffffffffffffffffffffffffffffffffffffffff16600260003373ffffffffffffffffffffffffffffffffffffffff1673ffffffffffffffffffffffffffffffffffffffff16815260200190815260200160002060000160009054906101000a900473ffffffffffffffffffffffffffffffffffffffff1673ffffffffffffffffffffffffffffffffffffffff16145b6117c9576040517f08c379a00000000000000000000000000000000000000000000000000000000081526004016117c090614d34565b60405180910390fd5b6117d38133613419565b50565b6008602052816000526040600020602052806000526040600020600091509150505481565b60008060009054906101000a900473ffffffffffffffffffffffffffffffffffffffff16905090565b6000600260003373ffffffffffffffffffffffffffffffffffffffff1673ffffffffffffffffffffffffffffffffffffffff168152602001908152602001600020600101541180156119055750600073ffffffffffffffffffffffffffffffffffffffff16600260003373ffffffffffffffffffffffffffffffffffffffff1673ffffffffffffffffffffffffffffffffffffffff16815260200190815260200160002060000160009054906101000a900473ffffffffffffffffffffffffffffffffffffffff1673ffffffffffffffffffffffffffffffffffffffff1614155b611944576040517f08c379a000000000000000000000000000000000000000000000000000000000815260040161193b90614d34565b60405180910390fd5b6000600260003373ffffffffffffffffffffffffffffffffffffffff1673ffffffffffffffffffffffffffffffffffffffff168152602001908152602001600020905060008160000160009054906101000a900473ffffffffffffffffffffffffffffffffffffffff1690505b600073ffffffffffffffffffffffffffffffffffffffff168173ffffffffffffffffffffffffffffffffffffffff1614611a74576000600260008373ffffffffffffffffffffffffffffffffffffffff1673ffffffffffffffffffffffffffffffffffffffff16815260200190815260200160002090508260010154816001016000828254611a409190614e5a565b925050819055508060000160009054906101000a900473ffffffffffffffffffffffffffffffffffffffff169150506119b1565b60008260000160006101000a81548173ffffffffffffffffffffffffffffffffffffffff021916908373ffffffffffffffffffffffffffffffffffffffff1602179055503373ffffffffffffffffffffffffffffffffffffffff167f7863f280981e271cbf21a2e5083b0f960312e7c7de9e544372bd73c8b9fbc3c060405160405180910390a25050565b600063bc197c8160e01b905095945050505050565b60038181548110611b2457600080fd5b90600052602060002090600502016000915090508060000160009054906101000a900460ff16908060000160019054906101000a900473ffffffffffffffffffffffffffffffffffffffff16908060010160009054906101000a900473ffffffffffffffffffffffffffffffffffffffff16908060020154908060030154908060040154905086565b611bb561312a565b6000600260008573ffffffffffffffffffffffffffffffffffffffff1673ffffffffffffffffffffffffffffffffffffffff1681526020019081526020016000206001015414611c3a576040517f08c379a0000000000000000000000000000000000000000000000000000000008152600401611c3190615117565b60405180910390fd5b6001600260008573ffffffffffffffffffffffffffffffffffffffff1673ffffffffffffffffffffffffffffffffffffffff1681526020019081526020016000206001018190555081600260008573ffffffffffffffffffffffffffffffffffffffff1673ffffffffffffffffffffffffffffffffffffffff168152602001908152602001600020600201819055506001806000828254611cdb9190614efa565b925050819055508273ffffffffffffffffffffffffffffffffffffffff167ec50bb1edba4bc1dd1ae7abd56c59883fb81a6a6638d24650726811dd7056938284604051611d299291906151ae565b60405180910390a2505050565b6000600260003373ffffffffffffffffffffffffffffffffffffffff1673ffffffffffffffffffffffffffffffffffffffff16815260200190815260200160002060010154118015611e165750600073ffffffffffffffffffffffffffffffffffffffff16600260003373ffffffffffffffffffffffffffffffffffffffff1673ffffffffffffffffffffffffffffffffffffffff16815260200190815260200160002060000160009054906101000a900473ffffffffffffffffffffffffffffffffffffffff1673ffffffffffffffffffffffffffffffffffffffff16145b611e55576040517f08c379a0000000000000000000000000000000000000000000000000000000008152600401611e4c90614d34565b60405180910390fd5b611e5f8133613599565b50565b60066020528060005260406000206000915090505481565b6000600260003373ffffffffffffffffffffffffffffffffffffffff1673ffffffffffffffffffffffffffffffffffffffff16815260200190815260200160002060010154118015611f5a5750600073ffffffffffffffffffffffffffffffffffffffff16600260003373ffffffffffffffffffffffffffffffffffffffff1673ffffffffffffffffffffffffffffffffffffffff16815260200190815260200160002060000160009054906101000a900473ffffffffffffffffffffffffffffffffffffffff1673ffffffffffffffffffffffffffffffffffffffff16145b611f99576040517f08c379a0000000000000000000000000000000000000000000000000000000008152600401611f9090614d34565b60405180910390fd5b60008290503073ffffffffffffffffffffffffffffffffffffffff168173ffffffffffffffffffffffffffffffffffffffff16636352211e846040518263ffffffff1660e01b8152600401611fee91906147c6565b60206040518083038186803b15801561200657600080fd5b505afa15801561201a573d6000803e3d6000fd5b505050506040513d601f19601f8201168201806040525081019061203e91906151f3565b73ffffffffffffffffffffffffffffffffffffffff1614612094576040517f08c379a000000000000000000000000000000000000000000000000000000000815260040161208b90614e0b565b60405180910390fd5b600760008473ffffffffffffffffffffffffffffffffffffffff1673ffffffffffffffffffffffffffffffffffffffff168152602001908152602001600020600083815260200190815260200160002060009054906101000a900460ff1615612132576040517f08c379a000000000000000000000000000000000000000000000000000000000815260040161212990614eda565b60405180910390fd5b60006040518060c0016040528060006003811115612153576121526146c2565b5b81526020018673ffffffffffffffffffffffffffffffffffffffff1681526020018573ffffffffffffffffffffffffffffffffffffffff1681526020018481526020016000815260200160008152509050600481908060018154018082558091505060019003906000526020600020906005020160009091909190915060008201518160000160006101000a81548160ff021916908360038111156121fb576121fa6146c2565b5b021790555060208201518160000160016101000a81548173ffffffffffffffffffffffffffffffffffffffff021916908373ffffffffffffffffffffffffffffffffffffffff16021790555060408201518160010160006101000a81548173ffffffffffffffffffffffffffffffffffffffff021916908373ffffffffffffffffffffffffffffffffffffffff160217905550606082015181600201556080820151816003015560a0820151816004015550506001600760008673ffffffffffffffffffffffffffffffffffffffff1673ffffffffffffffffffffffffffffffffffffffff168152602001908152602001600020600085815260200190815260200160002060006101000a81548160ff0219169083151502179055508373ffffffffffffffffffffffffffffffffffffffff168573ffffffffffffffffffffffffffffffffffffffff167f8b80d2f80aa12498df4e1e0bf042c797d97b7b4002e0da7323822fbf6a0165cf60016004805490506123789190614e5a565b86604051612387929190615220565b60405180910390a36123aa60016003805490506123a49190614e5a565b33613719565b5050505050565b6123b961312a565b6000600260008473ffffffffffffffffffffffffffffffffffffffff1673ffffffffffffffffffffffffffffffffffffffff168152602001908152602001600020600101541161243e576040517f08c379a000000000000000000000000000000000000000000000000000000000815260040161243590615295565b60405180910390fd5b80600260008473ffffffffffffffffffffffffffffffffffffffff1673ffffffffffffffffffffffffffffffffffffffff168152602001908152602001600020600201819055508173ffffffffffffffffffffffffffffffffffffffff167f0530b63eb6e80377dcbc051782b4870c1ea1ee5e5de51ee5c223da90ee75fe0f826040516124cb91906152b5565b60405180910390a25050565b6000600260003373ffffffffffffffffffffffffffffffffffffffff1673ffffffffffffffffffffffffffffffffffffffff168152602001908152602001600020600101541180156125b75750600073ffffffffffffffffffffffffffffffffffffffff16600260003373ffffffffffffffffffffffffffffffffffffffff1673ffffffffffffffffffffffffffffffffffffffff16815260200190815260200160002060000160009054906101000a900473ffffffffffffffffffffffffffffffffffffffff1673ffffffffffffffffffffffffffffffffffffffff16145b6125f6576040517f08c379a00000000000000000000000000000000000000000000000000000000081526004016125ed90614d34565b60405180910390fd5b6126008133613719565b50565b600063f23a6e6160e01b905095945050505050565b61262061312a565b600073ffffffffffffffffffffffffffffffffffffffff168173ffffffffffffffffffffffffffffffffffffffff161415612690576040517f08c379a000000000000000000000000000000000000000000000000000000000815260040161268790615342565b60405180910390fd5b612699816131a8565b50565b600481815481106126ac57600080fd5b90600052602060002090600502016000915090508060000160009054906101000a900460ff16908060000160019054906101000a900473ffffffffffffffffffffffffffffffffffffffff16908060010160009054906101000a900473ffffffffffffffffffffffffffffffffffffffff16908060020154908060030154908060040154905086565b6000600260003373ffffffffffffffffffffffffffffffffffffffff1673ffffffffffffffffffffffffffffffffffffffff168152602001908152602001600020600101541180156128155750600073ffffffffffffffffffffffffffffffffffffffff16600260003373ffffffffffffffffffffffffffffffffffffffff1673ffffffffffffffffffffffffffffffffffffffff16815260200190815260200160002060000160009054906101000a900473ffffffffffffffffffffffffffffffffffffffff1673ffffffffffffffffffffffffffffffffffffffff16145b612854576040517f08c379a000000000000000000000000000000000000000000000000000000000815260040161284b90614d34565b60405180910390fd5b7fffffffffffffffffffffffffffffffffffffffffffffffffffffffffffffffff600260003373ffffffffffffffffffffffffffffffffffffffff1673ffffffffffffffffffffffffffffffffffffffff168152602001908152602001600020600201541480612906575080600260003373ffffffffffffffffffffffffffffffffffffffff1673ffffffffffffffffffffffffffffffffffffffff1681526020019081526020016000206002015412155b612945576040517f08c379a000000000000000000000000000000000000000000000000000000000815260040161293c906153ae565b60405180910390fd5b600073ffffffffffffffffffffffffffffffffffffffff168273ffffffffffffffffffffffffffffffffffffffff161415612a0c5780600660008473ffffffffffffffffffffffffffffffffffffffff1673ffffffffffffffffffffffffffffffffffffffff16815260200190815260200160002054476129c69190614e5a565b1015612a07576040517f08c379a00000000000000000000000000000000000000000000000000000000081526004016129fe9061541a565b60405180910390fd5b612b28565b600082905081600660008573ffffffffffffffffffffffffffffffffffffffff1673ffffffffffffffffffffffffffffffffffffffff168152602001908152602001600020548273ffffffffffffffffffffffffffffffffffffffff166370a08231306040518263ffffffff1660e01b8152600401612a8b919061485e565b60206040518083038186803b158015612aa357600080fd5b505afa158015612ab7573d6000803e3d6000fd5b505050506040513d601f19601f82011682018060405250810190612adb9190614d92565b612ae59190614e5a565b1015612b26576040517f08c379a0000000000000000000000000000000000000000000000000000000008152600401612b1d9061541a565b60405180910390fd5b505b60006040518060c0016040528060006003811115612b4957612b486146c2565b5b81526020018573ffffffffffffffffffffffffffffffffffffffff1681526020018473ffffffffffffffffffffffffffffffffffffffff1681526020018381526020016000815260200160008152509050600381908060018154018082558091505060019003906000526020600020906005020160009091909190915060008201518160000160006101000a81548160ff02191690836003811115612bf157612bf06146c2565b5b021790555060208201518160000160016101000a81548173ffffffffffffffffffffffffffffffffffffffff021916908373ffffffffffffffffffffffffffffffffffffffff16021790555060408201518160010160006101000a81548173ffffffffffffffffffffffffffffffffffffffff021916908373ffffffffffffffffffffffffffffffffffffffff160217905550606082015181600201556080820151816003015560a08201518160040155505081600660008573ffffffffffffffffffffffffffffffffffffffff1673ffffffffffffffffffffffffffffffffffffffff1681526020019081526020016000206000828254612cf39190614efa565b925050819055508273ffffffffffffffffffffffffffffffffffffffff168473ffffffffffffffffffffffffffffffffffffffff167fd1a8fcd6282dedac9c04576e043a4c751ff8f8849c37d2de86e20e268632960e6001600380549050612d5b9190614e5a565b85604051612d6a929190615220565b60405180910390a3612d8d6001600380549050612d879190614e5a565b3361326c565b50505050565b60007f01ffc9a7000000000000000000000000000000000000000000000000000000007bffffffffffffffffffffffffffffffffffffffffffffffffffffffff1916827bffffffffffffffffffffffffffffffffffffffffffffffffffffffff1916149050919050565b6000600260008373ffffffffffffffffffffffffffffffffffffffff1673ffffffffffffffffffffffffffffffffffffffff1681526020019081526020016000206040518060600160405290816000820160009054906101000a900473ffffffffffffffffffffffffffffffffffffffff1673ffffffffffffffffffffffffffffffffffffffff1673ffffffffffffffffffffffffffffffffffffffff168152602001600182015481526020016002820154815250509050600060058481548110612ecb57612eca61543a565b5b906000526020600020906006020190508160200151816005016000828254612ef39190614efa565b925050819055508273ffffffffffffffffffffffffffffffffffffffff167ff801bdb6a6d384c052d6e84fdb34559f354a7cce03f4d5cae3e951014d1f7d8085604051612f4091906147c6565b60405180910390a26001546033612f579190615469565b60648260050154612f689190615469565b10612f7757612f76846138c6565b5b50505050565b6000600260008373ffffffffffffffffffffffffffffffffffffffff1673ffffffffffffffffffffffffffffffffffffffff1681526020019081526020016000206040518060600160405290816000820160009054906101000a900473ffffffffffffffffffffffffffffffffffffffff1673ffffffffffffffffffffffffffffffffffffffff1673ffffffffffffffffffffffffffffffffffffffff16815260200160018201548152602001600282015481525050905060006005848154811061304b5761304a61543a565b5b9060005260206000209060060201905081602001518160040160008282546130739190614efa565b9250508190555060018160000160006101000a81548160ff021916908360038111156130a2576130a16146c2565b5b02179055508273ffffffffffffffffffffffffffffffffffffffff167faa74bbcf451efbc83f0740af17b05324feeb72ee51f533632d67f263882ca7b0856040516130ed91906147c6565b60405180910390a260015460336131049190615469565b606482600401546131159190615469565b1061312457613123846139e7565b5b50505050565b613132613bcf565b73ffffffffffffffffffffffffffffffffffffffff166131506117fb565b73ffffffffffffffffffffffffffffffffffffffff16146131a6576040517f08c379a000000000000000000000000000000000000000000000000000000000815260040161319d9061550f565b60405180910390fd5b565b60008060009054906101000a900473ffffffffffffffffffffffffffffffffffffffff169050816000806101000a81548173ffffffffffffffffffffffffffffffffffffffff021916908373ffffffffffffffffffffffffffffffffffffffff1602179055508173ffffffffffffffffffffffffffffffffffffffff168173ffffffffffffffffffffffffffffffffffffffff167f8be0079c531659141344cd1fd0a4f28419497f9722a3daafe3b4186f6b6457e060405160405180910390a35050565b6000600260008373ffffffffffffffffffffffffffffffffffffffff1673ffffffffffffffffffffffffffffffffffffffff1681526020019081526020016000206040518060600160405290816000820160009054906101000a900473ffffffffffffffffffffffffffffffffffffffff1673ffffffffffffffffffffffffffffffffffffffff1673ffffffffffffffffffffffffffffffffffffffff16815260200160018201548152602001600282015481525050905060006003848154811061333a5761333961543a565b5b9060005260206000209060050201905081602001518160030160008282546133629190614efa565b9250508190555060018160000160006101000a81548160ff02191690836003811115613391576133906146c2565b5b02179055508273ffffffffffffffffffffffffffffffffffffffff167f03cb4dd3200bc50f0cdedf06c3f7edd0f711e991c313be148705b6750ae339fb856040516133dc91906147c6565b60405180910390a260015460336133f39190615469565b606482600301546134049190615469565b106134135761341284613bd7565b5b50505050565b6000600260008373ffffffffffffffffffffffffffffffffffffffff1673ffffffffffffffffffffffffffffffffffffffff1681526020019081526020016000206040518060600160405290816000820160009054906101000a900473ffffffffffffffffffffffffffffffffffffffff1673ffffffffffffffffffffffffffffffffffffffff1673ffffffffffffffffffffffffffffffffffffffff1681526020016001820154815260200160028201548152505090506000600384815481106134e7576134e661543a565b5b90600052602060002090600502019050816020015181600401600082825461350f9190614efa565b925050819055508273ffffffffffffffffffffffffffffffffffffffff167ffb71afe42c01f7cd7c8d241e7f00a6b663ab61671e53fcfd45b2594e03f6ea148560405161355c91906147c6565b60405180910390a260015460336135739190615469565b606482600401546135849190615469565b106135935761359284613e91565b5b50505050565b6000600260008373ffffffffffffffffffffffffffffffffffffffff1673ffffffffffffffffffffffffffffffffffffffff1681526020019081526020016000206040518060600160405290816000820160009054906101000a900473ffffffffffffffffffffffffffffffffffffffff1673ffffffffffffffffffffffffffffffffffffffff1673ffffffffffffffffffffffffffffffffffffffff1681526020016001820154815260200160028201548152505090506000600484815481106136675761366661543a565b5b90600052602060002090600502019050816020015181600401600082825461368f9190614efa565b925050819055508273ffffffffffffffffffffffffffffffffffffffff167f85f4b5dd584e511ea9314ef0f7f61c860872aab931b8dc9e6a838cc733bfa749856040516136dc91906147c6565b60405180910390a260015460336136f39190615469565b606482600401546137049190615469565b106137135761371284613f9d565b5b50505050565b6000600260008373ffffffffffffffffffffffffffffffffffffffff1673ffffffffffffffffffffffffffffffffffffffff1681526020019081526020016000206040518060600160405290816000820160009054906101000a900473ffffffffffffffffffffffffffffffffffffffff1673ffffffffffffffffffffffffffffffffffffffff1673ffffffffffffffffffffffffffffffffffffffff1681526020016001820154815260200160028201548152505090506000600484815481106137e7576137e661543a565b5b90600052602060002090600502019050816020015181600301600082825461380f9190614efa565b9250508190555060018160000160006101000a81548160ff0219169083600381111561383e5761383d6146c2565b5b02179055508273ffffffffffffffffffffffffffffffffffffffff167f0611e8bb3207a76a632a0ee8ce52e45e88c0e6ea67d08a4e3a4460834f70f30e8560405161388991906147c6565b60405180910390a260015460336138a09190615469565b606482600301546138b19190615469565b106138c0576138bf846140bc565b5b50505050565b6000600582815481106138dc576138db61543a565b5b9060005260206000209060060201905060028160000160006101000a81548160ff02191690836003811115613914576139136146c2565b5b02179055508060030154600860008360010160009054906101000a900473ffffffffffffffffffffffffffffffffffffffff1673ffffffffffffffffffffffffffffffffffffffff1673ffffffffffffffffffffffffffffffffffffffff16815260200190815260200160002060008360020154815260200190815260200160002060008282546139a59190614e5a565b925050819055507f09dc3775d00a443555172253496c8e9e0367b1d9a89665432a79570df6a6499b826040516139db91906147c6565b60405180910390a15050565b6000600582815481106139fd576139fc61543a565b5b9060005260206000209060060201905060008160010160009054906101000a900473ffffffffffffffffffffffffffffffffffffffff1690508073ffffffffffffffffffffffffffffffffffffffff1663f242432a308460000160019054906101000a900473ffffffffffffffffffffffffffffffffffffffff16856002015486600301546040518563ffffffff1660e01b8152600401613aa19493929190615566565b600060405180830381600087803b158015613abb57600080fd5b505af1158015613acf573d6000803e3d6000fd5b5050505060038260000160006101000a81548160ff02191690836003811115613afb57613afa6146c2565b5b02179055508160030154600860008460010160009054906101000a900473ffffffffffffffffffffffffffffffffffffffff1673ffffffffffffffffffffffffffffffffffffffff1673ffffffffffffffffffffffffffffffffffffffff1681526020019081526020016000206000846002015481526020019081526020016000206000828254613b8c9190614e5a565b925050819055507f9831672c84d9f968c3f424c8a0b7586612154d6beb022641d9cd9c3a4c9c297683604051613bc291906147c6565b60405180910390a1505050565b600033905090565b600060038281548110613bed57613bec61543a565b5b90600052602060002090600502019050600073ffffffffffffffffffffffffffffffffffffffff168160010160009054906101000a900473ffffffffffffffffffffffffffffffffffffffff1673ffffffffffffffffffffffffffffffffffffffff161415613cca578060000160019054906101000a900473ffffffffffffffffffffffffffffffffffffffff1673ffffffffffffffffffffffffffffffffffffffff166108fc82600201549081150290604051600060405180830381858888f19350505050158015613cc4573d6000803e3d6000fd5b50613dab565b60008160010160009054906101000a900473ffffffffffffffffffffffffffffffffffffffff1690508073ffffffffffffffffffffffffffffffffffffffff1663a9059cbb8360000160019054906101000a900473ffffffffffffffffffffffffffffffffffffffff1684600201546040518363ffffffff1660e01b8152600401613d56929190614d54565b602060405180830381600087803b158015613d7057600080fd5b505af1158015613d84573d6000803e3d6000fd5b505050506040513d601f19601f82011682018060405250810190613da891906155ea565b50505b60038160000160006101000a81548160ff02191690836003811115613dd357613dd26146c2565b5b02179055508060020154600660008360010160009054906101000a900473ffffffffffffffffffffffffffffffffffffffff1673ffffffffffffffffffffffffffffffffffffffff1673ffffffffffffffffffffffffffffffffffffffff1681526020019081526020016000206000828254613e4f9190614e5a565b925050819055507f6f2f95e4868711720904d8d86aaaa8665715b41d5f10258bef586effcc3b0fa182604051613e8591906147c6565b60405180910390a15050565b600060038281548110613ea757613ea661543a565b5b9060005260206000209060050201905060028160000160006101000a81548160ff02191690836003811115613edf57613ede6146c2565b5b02179055508060020154600660008360010160009054906101000a900473ffffffffffffffffffffffffffffffffffffffff1673ffffffffffffffffffffffffffffffffffffffff1673ffffffffffffffffffffffffffffffffffffffff1681526020019081526020016000206000828254613f5b9190614e5a565b925050819055507f52a1b080c3f7a606796ec4f4e9c0be6c11d2198c58528549d3a3669dbd7ce98b82604051613f9191906147c6565b60405180910390a15050565b600060048281548110613fb357613fb261543a565b5b9060005260206000209060050201905060028160000160006101000a81548160ff02191690836003811115613feb57613fea6146c2565b5b02179055506000600760008360010160009054906101000a900473ffffffffffffffffffffffffffffffffffffffff1673ffffffffffffffffffffffffffffffffffffffff1673ffffffffffffffffffffffffffffffffffffffff16815260200190815260200160002060008360020154815260200190815260200160002060006101000a81548160ff0219169083151502179055507f535b94db7d71f53fd43c75c78a1988bb1b2e4d3348d345a09ed4a7bcf1dfebfd826040516140b091906147c6565b60405180910390a15050565b6000600482815481106140d2576140d161543a565b5b9060005260206000209060050201905060008160010160009054906101000a900473ffffffffffffffffffffffffffffffffffffffff1690508073ffffffffffffffffffffffffffffffffffffffff166342842e0e308460000160019054906101000a900473ffffffffffffffffffffffffffffffffffffffff16866040518463ffffffff1660e01b815260040161416c93929190615617565b600060405180830381600087803b15801561418657600080fd5b505af115801561419a573d6000803e3d6000fd5b5050505060038260000160006101000a81548160ff021916908360038111156141c6576141c56146c2565b5b02179055506000600760008460010160009054906101000a900473ffffffffffffffffffffffffffffffffffffffff1673ffffffffffffffffffffffffffffffffffffffff1673ffffffffffffffffffffffffffffffffffffffff16815260200190815260200160002060008460020154815260200190815260200160002060006101000a81548160ff0219169083151502179055507f2044dcec459a244546d88d08d9478ab9fe6ab315d0f05d86eb9b5afd856721d08360405161428b91906147c6565b60405180910390a1505050565b6000604051905090565b600080fd5b600080fd5b60007fffffffff0000000000000000000000000000000000000000000000000000000082169050919050565b6142e1816142ac565b81146142ec57600080fd5b50565b6000813590506142fe816142d8565b92915050565b60006020828403121561431a576143196142a2565b5b6000614328848285016142ef565b91505092915050565b60008115159050919050565b61434681614331565b82525050565b6000602082019050614361600083018461433d565b92915050565b6000819050919050565b61437a81614367565b811461438557600080fd5b50565b60008135905061439781614371565b92915050565b6000602082840312156143b3576143b26142a2565b5b60006143c184828501614388565b91505092915050565b600073ffffffffffffffffffffffffffffffffffffffff82169050919050565b60006143f5826143ca565b9050919050565b614405816143ea565b811461441057600080fd5b50565b600081359050614422816143fc565b92915050565b600080fd5b600080fd5b6000601f19601f8301169050919050565b7f4e487b7100000000000000000000000000000000000000000000000000000000600052604160045260246000fd5b61447b82614432565b810181811067ffffffffffffffff8211171561449a57614499614443565b5b80604052505050565b60006144ad614298565b90506144b98282614472565b919050565b600067ffffffffffffffff8211156144d9576144d8614443565b5b6144e282614432565b9050602081019050919050565b82818337600083830152505050565b600061451161450c846144be565b6144a3565b90508281526020810184848401111561452d5761452c61442d565b5b6145388482856144ef565b509392505050565b600082601f83011261455557614554614428565b5b81356145658482602086016144fe565b91505092915050565b60008060008060808587031215614588576145876142a2565b5b600061459687828801614413565b94505060206145a787828801614413565b93505060406145b887828801614388565b925050606085013567ffffffffffffffff8111156145d9576145d86142a7565b5b6145e587828801614540565b91505092959194509250565b6145fa816142ac565b82525050565b600060208201905061461560008301846145f1565b92915050565b60008060408385031215614632576146316142a2565b5b600061464085828601614413565b925050602061465185828601614388565b9150509250929050565b60008060008060808587031215614675576146746142a2565b5b600061468387828801614413565b945050602061469487828801614413565b93505060406146a587828801614388565b92505060606146b687828801614388565b91505092959194509250565b7f4e487b7100000000000000000000000000000000000000000000000000000000600052602160045260246000fd5b60048110614702576147016146c2565b5b50565b6000819050614713826146f1565b919050565b600061472382614705565b9050919050565b61473381614718565b82525050565b614742816143ea565b82525050565b61475181614367565b82525050565b600060e08201905061476c600083018a61472a565b6147796020830189614739565b6147866040830188614739565b6147936060830187614748565b6147a06080830186614748565b6147ad60a0830185614748565b6147ba60c0830184614748565b98975050505050505050565b60006020820190506147db6000830184614748565b92915050565b6000602082840312156147f7576147f66142a2565b5b600061480584828501614413565b91505092915050565b6000819050919050565b6148218161480e565b82525050565b600060608201905061483c6000830186614739565b6148496020830185614748565b6148566040830184614818565b949350505050565b60006020820190506148736000830184614739565b92915050565b600067ffffffffffffffff82111561489457614893614443565b5b602082029050602081019050919050565b600080fd5b60006148bd6148b884614879565b6144a3565b905080838252602082019050602084028301858111156148e0576148df6148a5565b5b835b8181101561490957806148f58882614388565b8452602084019350506020810190506148e2565b5050509392505050565b600082601f83011261492857614927614428565b5b81356149388482602086016148aa565b91505092915050565b600080600080600060a0868803121561495d5761495c6142a2565b5b600061496b88828901614413565b955050602061497c88828901614413565b945050604086013567ffffffffffffffff81111561499d5761499c6142a7565b5b6149a988828901614913565b935050606086013567ffffffffffffffff8111156149ca576149c96142a7565b5b6149d688828901614913565b925050608086013567ffffffffffffffff8111156149f7576149f66142a7565b5b614a0388828901614540565b9150509295509295909350565b600060c082019050614a25600083018961472a565b614a326020830188614739565b614a3f6040830187614739565b614a4c6060830186614748565b614a596080830185614748565b614a6660a0830184614748565b979650505050505050565b614a7a8161480e565b8114614a8557600080fd5b50565b600081359050614a9781614a71565b92915050565b600067ffffffffffffffff821115614ab857614ab7614443565b5b614ac182614432565b9050602081019050919050565b6000614ae1614adc84614a9d565b6144a3565b905082815260208101848484011115614afd57614afc61442d565b5b614b088482856144ef565b509392505050565b600082601f830112614b2557614b24614428565b5b8135614b35848260208601614ace565b91505092915050565b600080600060608486031215614b5757614b566142a2565b5b6000614b6586828701614413565b9350506020614b7686828701614a88565b925050604084013567ffffffffffffffff811115614b9757614b966142a7565b5b614ba386828701614b10565b9150509250925092565b600080600060608486031215614bc657614bc56142a2565b5b6000614bd486828701614413565b9350506020614be586828701614413565b9250506040614bf686828701614388565b9150509250925092565b60008060408385031215614c1757614c166142a2565b5b6000614c2585828601614413565b9250506020614c3685828601614a88565b9150509250929050565b600080600080600060a08688031215614c5c57614c5b6142a2565b5b6000614c6a88828901614413565b9550506020614c7b88828901614413565b9450506040614c8c88828901614388565b9350506060614c9d88828901614388565b925050608086013567ffffffffffffffff811115614cbe57614cbd6142a7565b5b614cca88828901614540565b9150509295509295909350565b600082825260208201905092915050565b7f496e76616c696420726571756573742e00000000000000000000000000000000600082015250565b6000614d1e601083614cd7565b9150614d2982614ce8565b602082019050919050565b60006020820190508181036000830152614d4d81614d11565b9050919050565b6000604082019050614d696000830185614739565b614d766020830184614748565b9392505050565b600081519050614d8c81614371565b92915050565b600060208284031215614da857614da76142a2565b5b6000614db684828501614d7d565b91505092915050565b7f4e4654206e6f74206f776e65642062792077616c6c65742e0000000000000000600082015250565b6000614df5601883614cd7565b9150614e0082614dbf565b602082019050919050565b60006020820190508181036000830152614e2481614de8565b9050919050565b7f4e487b7100000000000000000000000000000000000000000000000000000000600052601160045260246000fd5b6000614e6582614367565b9150614e7083614367565b925082821015614e8357614e82614e2b565b5b828203905092915050565b7f4e4654206c6f636b656420696e2077616c6c65742e0000000000000000000000600082015250565b6000614ec4601583614cd7565b9150614ecf82614e8e565b602082019050919050565b60006020820190508181036000830152614ef381614eb7565b9050919050565b6000614f0582614367565b9150614f1083614367565b9250827fffffffffffffffffffffffffffffffffffffffffffffffffffffffffffffffff03821115614f4557614f44614e2b565b5b828201905092915050565b6000606082019050614f656000830186614748565b614f726020830185614748565b614f7f6040830184614748565b949350505050565b7f496e76616c69642064656c65676174652e000000000000000000000000000000600082015250565b6000614fbd601183614cd7565b9150614fc882614f87565b602082019050919050565b60006020820190508181036000830152614fec81614fb0565b9050919050565b7f53656c662d64656c65676174696f6e20697320646973616c6c6f7765642e0000600082015250565b6000615029601e83614cd7565b915061503482614ff3565b602082019050919050565b600060208201905081810360008301526150588161501c565b9050919050565b7f466f756e64206c6f6f7020696e2064656c65676174696f6e2e00000000000000600082015250565b6000615095601983614cd7565b91506150a08261505f565b602082019050919050565b600060208201905081810360008301526150c481615088565b9050919050565b7f5369676e657220616c72656164792061646465642e0000000000000000000000600082015250565b6000615101601583614cd7565b915061510c826150cb565b602082019050919050565b60006020820190508181036000830152615130816150f4565b9050919050565b600081519050919050565b60005b83811015615160578082015181840152602081019050615145565b8381111561516f576000848401525b50505050565b600061518082615137565b61518a8185614cd7565b935061519a818560208601615142565b6151a381614432565b840191505092915050565b600060408201905081810360008301526151c88185615175565b90506151d76020830184614818565b9392505050565b6000815190506151ed816143fc565b92915050565b600060208284031215615209576152086142a2565b5b6000615217848285016151de565b91505092915050565b60006040820190506152356000830185614748565b6152426020830184614748565b9392505050565b7f5369676e657220646f6573206e6f74206578697374732e000000000000000000600082015250565b600061527f601783614cd7565b915061528a82615249565b602082019050919050565b600060208201905081810360008301526152ae81615272565b9050919050565b60006020820190506152ca6000830184614818565b92915050565b7f4f776e61626c653a206e6577206f776e657220697320746865207a65726f206160008201527f6464726573730000000000000000000000000000000000000000000000000000602082015250565b600061532c602683614cd7565b9150615337826152d0565b604082019050919050565b6000602082019050818103600083015261535b8161531f565b9050919050565b7f5472616e73616374696f6e206361702065786365656465642e00000000000000600082015250565b6000615398601983614cd7565b91506153a382615362565b602082019050919050565b600060208201905081810360008301526153c78161538b565b9050919050565b7f496e73756666696369656e742062616c616e636520696e2077616c6c65742e00600082015250565b6000615404601f83614cd7565b915061540f826153ce565b602082019050919050565b60006020820190508181036000830152615433816153f7565b9050919050565b7f4e487b7100000000000000000000000000000000000000000000000000000000600052603260045260246000fd5b600061547482614367565b915061547f83614367565b9250817fffffffffffffffffffffffffffffffffffffffffffffffffffffffffffffffff04831182151516156154b8576154b7614e2b565b5b828202905092915050565b7f4f776e61626c653a2063616c6c6572206973206e6f7420746865206f776e6572600082015250565b60006154f9602083614cd7565b9150615504826154c3565b602082019050919050565b60006020820190508181036000830152615528816154ec565b9050919050565b600082825260208201905092915050565b50565b600061555060008361552f565b915061555b82615540565b600082019050919050565b600060a08201905061557b6000830187614739565b6155886020830186614739565b6155956040830185614748565b6155a26060830184614748565b81810360808301526155b381615543565b905095945050505050565b6155c781614331565b81146155d257600080fd5b50565b6000815190506155e4816155be565b92915050565b600060208284031215615600576155ff6142a2565b5b600061560e848285016155d5565b91505092915050565b600060608201905061562c6000830186614739565b6156396020830185614739565b6156466040830184614748565b94935050505056fea2646970667358221220046c8e93fd921d4483d0637010aaf009b2d366fb7d68f26d27152f96251be95e64736f6c63430008090033",
  "linkReferences": {},
  "deployedLinkReferences": {}
}